:020000040000fa
:080000000002040000000000f2
:020000040000fa
:10000800902300009023000090230000902300001c
:10001800902300009023000090230000902300000c
:10002800902300009023000090230000602000002f
:1000380090230000902300009023000090230000ec
:1000480090230000902300009023000090230000dc
:1000580090230000902300009023000090230000cc
:1000680090230000902300009023000090230000bc
:1000780090230000902300009023000090230000ac
:10008800902300009023000090230000902300009c
:10009800902300009023000090230000902300008c
:1000a800902300009023000090230000902300007c
:1000b800902300009023000090230000902300006c
:1000c800902300009023000090230000902300005c
:1000d800902300009023000090230000902300004c
:1000e800902300009023000090230000902300003c
:1000f800902300009023000090230000902300002c
:10010800902300009023000090230000902300001b
:10011800902300009023000090230000902300000b
:1001280090230000902300009023000090230000fb
:1001380090230000902300009023000090230000eb
:1001480090230000902300009023000090230000db
:1001580090230000902300009023000090230000cb
:1001680090230000902300009023000090230000bb
:1001780090230000902300009023000090230000ab
:10018800902300009023000090230000902300009b
:10019800902300009023000090230000902300008b
:1001a800902300009023000090230000902300007b
:1001b800902300009023000090230000902300006b
:1001c800902300009023000090230000902300005b
:1001d800902300009023000090230000902300004b
:1001e800902300009023000090230000902300003b
:0801f800902300009023000099
:020000040000fa
:10020800902300009023000090230000902300001a
:10021800902300009023000090230000902300000a
:10022800902300009023000090230000602000002d
:1002380090230000902300009023000090230000ea
:1002480090230000902300009023000090230000da
:1002580090230000902300009023000090230000ca
:1002680090230000902300009023000090230000ba
:1002780090230000902300009023000090230000aa
:10028800902300009023000090230000902300009a
:10029800902300009023000090230000902300008a
:1002a800902300009023000090230000902300007a
:1002b800902300009023000090230000902300006a
:1002c800902300009023000090230000902300005a
:1002d800902300009023000090230000902300004a
:1002e800902300009023000090230000902300003a
:1002f800902300009023000090230000902300002a
:100308009023000090230000902300009023000019
:100318009023000090230000902300009023000009
:1003280090230000902300009023000090230000f9
:1003380090230000902300009023000090230000e9
:1003480090230000902300009023000090230000d9
:1003580090230000902300009023000090230000c9
:1003680090230000902300009023000090230000b9
:1003780090230000902300009023000090230000a9
:100388009023000090230000902300009023000099
:100398009023000090230000902300009023000089
:1003a8009023000090230000902300009023000079
:1003b8009023000090230000902300009023000069
:1003c8009023000090230000902300009023000059
:1003d8009023000090230000902300009023000049
:1003e8009023000090230000902300009023000039
:0803f800902300009023000097
:020000040000fa
:100400000fd021000eff27000e0188000000000021
:100410000c000700603022000100200011000700de
:10042000000020000000e000020032000000020096
:100430000000000032230200000000000040da004b
:100440000000fe004440a900000620000000e0007b
:100450000300320000002000a00188004440a800f2
:100460000000060091018800800078000000eb0089
:1004700015003700e280400032a0b4009101ba00bc
:10048000e280400032a0b4009102ba00e280400055
:1004900032a0b4000002eb00472bde00f507b200eb
:1004a000602ce10004003a000059eb008301e900f0
:1004b000fdff3e00040037006128e100010032002a
:1004c0000082eb00040007001101ba000200e00006
:1004d000e8ff3a00000006003159ba008301e90044
:1004e0000c0032002159ba008301e90008003200f3
:1004f0000400e00003003a00e280400032a0b400b3
:10050000f5ff370011d9ba008301e900faff3a007c
:100510008100e800e180400032a0b4000000060045
:10052000960b04000000000072230400000000008d
:100530005223040000000000e68747008e1f780069
:10054000d0bf9f0066875700012f78000e0037004c
:10055000dfb99700134178006fb89700904078009a
:10056000814f5100040032000280fb008180fb00bb
:1005700001005000080037008301e800d3bf9f004e
:10058000000fe800040178000202e900e00f5100ca
:10059000efff3a00020078004f0778006f00b100cb
:1005a000000006008001780002003700b159780091
:1005b000040178000202e900e00f5100fbff3a005d
:1005c00000000600800178000200370081597800a1
:1005d000040178000202e900e00f5100fbff3a003d
:0405e0000000060011
:020000040000fa
:1005e40011110000222200003333000044440000b3
:1005f4005555000066660000777700008888000083
:1006040099990000aaaa0000bbbb0000cccc000052
:10061400dddd0000eeee0000cecd0000acab00004e
:1006240002020000030300000404000005050000aa
:100634000606000007070000080800000a09000079
:1006440010100000101100001212000049440000b4
:100654004c45000000a50000a5a50000a5a50000cc
:10066400a5a50000a5a50000a5a50000a5a500005e
:10067400a5a50000a5a50000a5a50000a5000000f3
:1006840054610000736b0000203100000000000082
:1006940054610000736b0000203200000000000071
:020000040000fa
:1006a4001600fa0030079800410798005207980096
:1006b4006307980074079800050f9800160f9800b8
:1006c400270f98009e0890005e009000a004070089
:1006d400100798001e009000e00f50004f003200f9
:1006e4001e009000c0089000210798001e00900092
:1006f400c00890005e0090000000e9000000400087
:10070400808040001e009000710898005e029000f6
:10071400ae0990007e019000ce0090001e00900073
:100724000d0407006e019000be0090002e009000a2
:10073400b70d0700800078001e00900001087800c3
:100744000e089000e00f5000030032000e089000e5
:100754009e00900001087800320e070040e58000fa
:100764000000e80040e58800f0e78000e00f50005a
:1007740007003a001e009000f0e7880040e5800082
:10078400e10f50000c003a00380407000a0037005b
:1007940070e58000e00f500007003a00f0e78000a9
:1007a400b00890007e009000808f500002003e0050
:1007b4009e009000f1e78800b0e580000000e800aa
:1007c400b0e588001e009000b008900060e580004d
:1007d400808f5000030036001e0090003008900007
:1007e40060e588001e0090000081e8001e00900073
:1007f400300890006a00b9008000780040c52100ec
:100804000080400082007800640e07001000200081
:10081400000f7800160e0700020037000080eb007e
:10082400000f78001e007800e10f50000b003a0022
:1008340070e58000e00f500008003200f0e780000f
:10084400b00890007e009000808f500003003100bb
:10085400b821020000000000000000001e00780023
:100864000080fa00000006000c00fa00400798001f
:10087400510798000000eb00000f7800a801070062
:1008840050e58000100798004e009000900078001a
:100894005e00900000804000200798004e00900009
:1008a400900078001e009000808f50000c003600ed
:1008b4004e009000900078002e009000808f500031
:1008c40012003600ae0090001e009000808f500091
:1008d4000e00360010002000000f78000b003700d7
:1008e4004e009000900078002e009000808f500001
:1008f40004003e00ae0090001e009000808f500067
:100904000200360010002000000f78004e00900016
:10091400ae009000010878001e007800e00f50003f
:1009240005003200f0e780000080e8006b0e07004d
:100934002e009000ec0307007f01070030079800a9
:100944003e009000e00f500003003a00b82102007e
:1009540000000000000000000080fa000000060013
:100964000600fa00200798000000eb00000f780052
:100974002e009000e00f50000c00320068010700c8
:1009840051e580002e009000008040001007980080
:10099400f0e780000080e800500e07001e00900081
:1009a400d103070064010700000f78001e007800df
:1009b400e00f500003003a00b821020000000000dc
:1009c400000000000080fa00000006000c00fa009d
:1009d40040079800510798000000eb00000f7800d2
:1009e4005e009000e30f500002003600300020004b
:1009f400500798008b0d07004e009000e00f500048
:100a040002003a00f0e78000010037004e00900039
:100a1400100798001e009000801090002107980095
:100a2400ae0090005e009000808f500051003200b4
:100a3400de0090002e009000808f50000c003600e5
:100a4400f0e780009e009000808f50000e0032007e
:100a5400f0e78000b00890005e009000808f5000a6
:100a640009003e0010002000000f78000600370047
:100a7400f0e780009e009000808f500002003a0052
:100a840010002000000f78001e009000b0089000b5
:100a9400310798001e009000801090001e00900006
:100aa40030089000808f500003003a001e00900030
:100ab400de009000310898001e009000de009000d7
:100ac400011098001e00900060009000e00f50009c
:100ad400040035005e009000e40010001e00900049
:100ae400610098001e009000500190003e009000ac
:100af4006a00b9008000780040c5210000804000f1
:100b0400800f510015003a001e0090000080e8009c
:100b1400f20d07001e009000b008900060e5800010
:100b2400808f5000030036001e00900030089000b3
:100b340060e588001e0090000081e8001e0090001f
:100b4400300890006a00b9008000780040c5210098
:100b54000080400082007800900d07001e0078009d
:100b6400e10f500003003a00b82102000000000029
:100b7400000000003e0d07000080fa00000006009f
:100b84000400fa0010079800260d07001e009000cc
:100b9400e00f500002003a00f0e780000100370047
:100ba4001e009000000f78001e80e800cb0d0700a7
:100bb4001e00780020089000e00f5000030032006f
:100bc4009e0078006c804000c40d07001e80e80081
:100bd40080007800e0c92100700d0700240d070093
:100be400f0e780009e007800808f500010003a00eb
:100bf40070e58000e00f500004003200b8210200cc
:100c040000000000000000000f003700f1e4800045
:100c140040e58000808f500003003a000000eb00a4
:100c2400f0e7880008003700950107000600370048
:100c340070e58000e00f500003003200f90c07005b
:100c44006c0307000a0d07000080fa00000006008c
:100c54000600fa00200798000000eb00000f78005f
:100c64002e009000100798001e009000d000900005
:100c7400e0c92100808f50000b003a001e00900054
:100c8400a008900040c92100808f50000600320067
:100c94001e00900020089000e00f500002003a006f
:100ca40010002000000f78001e0078000080fa0079
:100cb400000006000400fa00100798001e009000cf
:100cc400000f78001e007800e00f5000260032006c
:100cd400f0e780009e007800808f500022003200f0
:100ce400d00c07001e007800d9ff0700e10f500068
:100cf4001c003a001e80e800780d07001e007800f2
:100d0400b008900060e58000808f5000030036003a
:100d14001e0078003008900060e588001e81e8001d
:100d24001e007800300890006a00b9008000780046
:100d340040c521000080400082007800170d0700a4
:100d44001e007800b0089000f0e7800030089000a2
:100d5400808f500003003900b82102000000000019
:100d640000000000c20c07000080fa00000006002a
:100d74000800fa00300798000000eb00000f78002c
:100d84003e009000100798000000eb002007980038
:100d94001e009000aeff0700e10f500026003a004d
:100da400d0e58000e00f50001e003a001e009000c5
:100db400b0089000f0e7800030089000808f500069
:100dc4000200390010002000000f78001e0090007f
:100dd4000080e800410d07001e009000b00890005c
:100de40060e58000808f5000030036001e009000f4
:100df4003008900060e588001e0090000081e80043
:100e04001e009000300890006a00b900800078004d
:100e140040c521000080400082007800df0c0700fc
:100e2400050037001e0090006c0040008000780030
:100e340040c92100d90c07001e0078000080fa0088
:100e4400000006000400fa008003eb000003eb003e
:100e54008002eb000002eb008001eb00b2092000ed
:100e64008132280060b920000dfe0700000f7800d1
:100e74001e007800e10f500014003a009002800038
:100e840010079800ff3ffc0011028000f0f12f00d2
:100e94008080600000022000008070001002880042
:100ea4001e009000900288000000880000000000ee
:100eb4000080eb00c0e588001000200070e5880089
:100ec4000000eb0050e588001a0c07000080fa00cf
:100ed400000006000200fa0090028000000f780073
:100ee400ff3ffc0011028000f0f12f0080806000c1
:100ef4000002200000807000100288001e007800ac
:100f04009002880000008800000000000000eb0050
:100f140070e58800290c07000080fa000000060034
:100f24000000fa00d0e580000000e800d0e5880069
:100f34000080fa00000006000400fa000000eb0044
:100f4400000f7800370c0700d0e580000000e900ae
:100f5400d0e58800d0e58000e00f500041003a0061
:100f640040e58000e00f50003e00320023003700cf
:100f7400d0e4800030009000100798001e0090001c
:100f84006c004000d50c07001e0090000080e800b3
:100f9400d20c07001e009000b008900060e58000ad
:100fa400808f5000030036001e009000300890002f
:100fb40060e588001e0090000081e8001e0090009b
:100fc400300890006a00b9008000780040c5210014
:100fd4000080400082007800700c07001e00900022
:100fe400b0089000f0e7800030089000808f500037
:100ff400020039001000200090e58800a0e4800081
:10100400e00f5000daff3a0080e58000e00f500066
:101014000c003200080037002a000700e00f5000df
:10102400020032001000200090e5880080e5800076
:101034000000e90080e5880080e58000e00f5000b2
:10104400f5ff3a0090e58000e10f500005003a00fa
:1010540010002000000f7800b821020000000000fa
:1010640000000000020c07001e0078000080fa0057
:10107400000006000200fa00ea0b070050e58000b9
:10108400000f7800fa0b07001e0078000080fa00b9
:10109400000006000400fa000000eb00000f7800d6
:1010a40050e58000100798001e0090000080fa00b0
:1010b400000006000000fa0040e580000080fa000d
:1010c400000006000a00fa000000eb00000f7800a0
:1010d400d0e58000e00f50005e003a0050e580004b
:1010e4000000e80050e5880050e5800010079800f3
:1010f4001e009000e00f50000a003a0081e48000d6
:101104002107980090e4800080e488002e0090007d
:1011140090e48800a0e580000000e800a0e58800d5
:1011240034020700c0e580009e009000808f5000cc
:101134003c003900010037000000000080e480001a
:1011440010007800e00f500003003a000080eb002c
:10115400c0e588003300370080e480003000900050
:1011640030009000300798003e00900090009000fe
:10117400410798009e0090004e009000808f500020
:10118400030031004e009000c0e5880025003700c0
:101194003e0090000080e800500c07003e009000e4
:1011a40020089000e00f5000030032003e00900041
:1011b4006c004000490c07003e009000b00890000d
:1011c40060e58000808f5000030036003e009000f0
:1011d4003008900060e588003e0090000081e8003f
:1011e4003e009000300890006a00b900800078004a
:1011f40040c521000080400082007800e70b070012
:101204003e009000b0089000f0e7800030089000a5
:10121400808f5000c8ff390010002000000f7800b4
:10122400c6ff3700f0e78000300890006a00b9007c
:101234008000780040c52100008040001000780044
:10124400e10f50000600360010002000000f780067
:101254000300370080e580000000e80080e5880096
:1012640090e58000e00f50000200320010002000e2
:10127400000f78001e0078000080fa0000000600cd
:101284000400fa00d0e58000e00f500003003200b3
:101294001000200090e58800370037000000eb00c4
:1012a40090e58800f0e7800070089000000f780057
:1012b4001e007800740f500042012000d132280033
:1012c4001e0078009bfc0700e00f5000080032006d
:1012d400f0e78000fa004000f0e78000ec0c070023
:1012e4000300370060e580000000e90060e5880045
:1012f40060e580006a00b9008000780040c52100e4
:101304000080400010007800e00f5000f5ff32002c
:1013140060e580006a00b9008000780040c52100c3
:1013240000804000100798001e00900010009000fc
:10133400900090001e009000110098001e00900084
:10134400900090001e00900064004000808f5000c8
:1013540005003a001e0090001000900090009000dc
:101364001e009000110098001e00900010009000d4
:1013740030009000f0e788000080fa0000000600ca
:101384000600fa001007980021079800f0e7800093
:101394006c004000800078001e0090009d0b070048
:1013a400f0e780000080e800cc0b07002e009000de
:1013b400e10f400006003a00f0e780000080e800fa
:1013c40080007800e0c92100740b07000500370095
:1013d40051e580002e009000008f40001e00780030
:1013e400410107000080fa00000006000800fa002e
:1013f400100798002107980032079800f0e7800052
:101404002e01900001002800810071006100980005
:10141400f0e780006c004000800078001e0090001f
:101424005e0b0700f0e780000080e800ab0b0700cc
:101434003e009000e10f400006003a00f0e7800013
:101444000080e80080007800e0c92100530b070009
:101454000500370051e580003e009000008f4000f9
:101464001e007800200107000080fa00000006003a
:101474000600fa00200798002e009000300090002b
:1014840030009000100798001e0090006c0040008f
:10149400920b0700d0e58000e00f500016003a00e0
:1014a4001e0090000080e8008c0b07001e009000d6
:1014b400b008900060e58000808f50000300360083
:1014c4001e0090003008900060e588001e00900027
:1014d4000081e8001e009000300890006a00b90006
:1014e4008000780040c52100008040008200780020
:1014f4002a0b0700050037001e0090006c00400016
:101504008000780040c92100240b07001e009000d1
:10151400b0089000f0e7800030089000808f500001
:101524000500360010002000000f78001000200095
:1015340090e58800020037000000eb00000f7800ff
:101544001e0078000080fa00000006000800fa007f
:101554002007980031079800be0090000000280082
:10156400808070002e009000010878002e0090000a
:1015740030009000100798002e009000570b0700d1
:101584001e0090000080e800540b07001e0090002d
:10159400b008900060e58000808f500003003600a2
:1015a4001e0090003008900060e588001e00900046
:1015b4000081e8001e009000300890006a00b90025
:1015c4008000780040c5210000804000820078003f
:1015d400f20a07001e009000b0089000f0e78000b7
:1015e40030089000808f5000050036001000200065
:1015f400000f78001000200090e5880002003700fa
:101604000000eb00000f78001e0078000080fa0054
:10161400000006000200fa00000f7800a1e5800037
:101624001e0078000108780051e580001e00780053
:10163400110098000080fa00000006000800fa007b
:101644002007980031079800760a070050e58000cb
:10165400100798003e00900010007800e10f400051
:1016640003003a000000eb00000f7800250037006b
:101674002e00900090007800a0e58000808f50003c
:10168400080032002e009000900090001e00900090
:10169400808f500003003e0010002000000f7800ef
:1016a400180037002e009000100090009e0090005b
:1016b400808050003e00900010007800808f500021
:1016c4000e0031003e009000900078002e00900043
:1016d400100190001e009000000051008080400026
:1016e4003e009000010878002e009000c9ff07001a
:1016f4000000eb00000f780002003700100020000b
:10170400000f78005a0a07001e0078000080fa00d3
:10171400000006000000fa001000200090e5880098
:101724000080fa00000006000200fa00000f7800b2
:10173400010037000000000068000700a0e28000fc
:10174400e10f5000fbff3600b8210200000000004a
:1017540000000000f8ff37000c00fa0010079800a2
:10176400210798003207980043079800540798000f
:101774000000eb00000f78000d0037002e009000f1
:101784001e004000104078009e0090009e804000a3
:10179400fa804000804878002e0090001e0040002f
:1017a40010407800e04f5000050032001e0fe800a2
:1017b4001e007800e30f5000f0ff360001003700f0
:1017c400000000009e0090000040eb00d0589800fc
:1017d4003e009000e30f500002003600300020006d
:1017e400300798001e009000be0090003108980059
:1017f4001e009000be009000011098001e00900092
:101804008000eb00111098001e0090000080e8009a
:101814005b0a07001e0090006c004000580a070095
:101824001e0090009e009000410098003e00900031
:10183400e40010001e009000610098001e0090005b
:101844009e009000110898001e0190006000b800ee
:1018540020119800311198001e0090008000eb00c8
:10186400411098000080fa00000006000200fa000f
:101874000000eb00000f7800070037001e0078001e
:101884006a00b9008000780040c521000080400053
:10189400220a07001e0fe8001e007800e30f500024
:1018a400f6ff3600c0c721001c0a070060c82100eb
:1018b4001a0a070040c92100180a0700e0c92100dc
:1018c400160a0700c0c7210080e4880060c8210010
:1018d40090e488000080fa00000006000000fa008e
:1018e4000080fa00000006000200fa00000f7800f1
:1018f400f0e780009e0078001100980050e5800019
:101904009e007800808f500005003100f0e78000d1
:101914008080e80090e480003e0a07000a00370057
:10192400f0e780008080e80080e48000390a070046
:10193400c0e580009e007800808f500002003100d6
:101944001e007800c0e588000080fa000000060050
:101954000600fa001007980021079800a002200052
:10196400c00a0700000f78001e007800e00f500046
:10197400120032002e009000e00f500004003a00e4
:101984001e00900000004000b60a07000100370066
:101994002e0090009e007800c00898001e00780079
:1019a40040089000e00f500004003a001e00780048
:1019b400d90a07000000eb00000f78001e00780031
:1019c400e00f5000080032001e00900000004000ac
:1019d400800078001e007800400890000101780023
:1019e400510a2000f6fa07001e0078000080fa0071
:1019f400000006000200fa0080e480001000780075
:101a0400e00f500003003a000080eb00c0e58800be
:101a14000700370080e48000300090003000900020
:101a2400000f78001e00780010009000c0e58800c8
:101a34000080fa00000006000200fa00f0e78000cf
:101a4400000f78001e0078000080fa0000000600f5
:101a54000400fa00100798001e009000000f7800a0
:101a64001e009000e00f5000350032001e00780088
:101a7400b0089000f0e7800030089000808f50009c
:101a84002f0031001e00780060009000e00f50002d
:101a940005003500f0e7800030089000e4001000f5
:101aa4001e007800610098001e007800500190002c
:101ab4001e007800300890006a00b90080007800a9
:101ac40040c5210000804000800f510018003a00fa
:101ad4001e80e800010a0700f0e78000b0089000cb
:101ae4001e007800310898001e007800b0089000ad
:101af40060e58000808f5000030036001e007800ef
:101b04003008900060e588001e81e8001e0078001f
:101b1400300890006a00b9008000780040c52100b8
:101b240000804000820078009c0907000400370010
:101b3400f0e78000b00890001e007800310898009b
:101b44000080fa00000006000600fa002007980052
:101b54002e009000100798000000eb00000f7800a2
:101b64002e009000e00f50002f0032001e00900065
:101b7400101090008000e9001e00900011109800e1
:101b84001e009000b00890001e009000001090000d
:101b9400808f5000240032001e009000101090002e
:101ba400e00f500020003a001e0090000080e80082
:101bb400ca0907001e009000801090001e009000cb
:101bc400310898001e00900030089000e4001000d6
:101bd4001e009000610098001e009000b008900064
:101be40060e58000808f5000030036001e009000e6
:101bf4003008900060e588001e0090000081e80035
:101c04001e009000300890006a00b900800078003f
:101c140040c5210000804000820078005f09070071
:101c240010002000000f78001e0078000080fa00e9
:101c3400000006000200fa00f0e78000e0009000d7
:101c4400010f7800f0e78000f1e78000b108900010
:101c5400e4801000610098001e0078000080fa0003
:101c6400000006000000fa00f0e78000e00f5000da
:101c740004003200f0e78000901090008100e8003a
:101c840011109800f0e780000080fa0000000600c0
:101c94000a00fa003007980041079800e10807009d
:101ca400f0e78000b010900020109000e00f50008a
:101cb400e08f58001a003a00f0e78000110020007d
:101cc400411098004e009000e00f500014003200c4
:101cd400f0e780000080e800800907004e009000d3
:101ce400e10f400006003a00f0e780000080e800c1
:101cf40080007800e0c921002809070005003700aa
:101d040051e580004e009000008f40001e007800d6
:101d1400f5fe0700b82102000000000000000000ea
:101d2400d3080700bf080700f0e7800020119000e7
:101d3400b011900012079800230798001e0090002d
:101d4400ae009000e00f5000e08f58000f0032000a
:101d54003e009000e00f500005003200f2e78000e2
:101d64006000b80020119800311198000700370076
:101d7400f2e7800022109000b21090006100500041
:101d8400e08058002011980031119800f0e780009d
:101d94008000eb0041109800b50807001e00900079
:101da400ae0090000080fa00000006001000fa0067
:101db40020079800310798004207980053079800bd
:101dc400640798007507980096080700f0e78000fc
:101dd40040109000e20f500031003200f4e7800020
:101de40024119000b41190002e009000be009000c9
:101df4000080ea008180ea00820278000301780012
:101e04008001780001007800838262000000610094
:101e140001002000c000dd00000020000001be0021
:101e24006128b800000171008181710022129800bc
:101e340033129800f0e78000110020004110980050
:101e44007e009000e00f500015003200f0e78000a3
:101e54000080e800210907007e009000e10f4000a7
:101e640006003a00f0e780000080e8008000780077
:101e7400e0c92100c90807000600370051e58000c9
:101e84007e00900000804000100798001e00900023
:101e940095fe0700b82102000000000000000000c9
:101ea400730807005f0807006e009000e00f500001
:101eb40005003200f0e78000b01090002010900080
:101ec4006e0190000089be00f0e780004010900091
:101ed400e10f500003003a000000eb00000f78000f
:101ee40018003700f4e7800024119000b41190002a
:101ef4004e009000de0090000080ea008180ea003d
:101f040082027800030178008001780001007800e3
:101f1400838262000000610001002000c000dd0037
:101f2400000020000001be006128b800000171001b
:101f34008181710022129800331298001000200051
:101f4400000f7800f0e780008000eb00411098005b
:101f5400470807001e0078000080fa000000060011
:101f64001000fa00300798004207980053079800c1
:101f7400610798007407980010002000000f780093
:101f84003e00900010079800260807007e0090008d
:101f9400e00f5000050032001e009000b0109000c9
:101fa400201090007e0190000089be001e00900069
:101fb400c0109000210798001e009000210020000e
:101fc400411098006e0090000100200042002000a3
:101fd40003002000820f5000838f58002d003e0024
:101fe400006001002a003700030037000d003700ad
:101ff400150037001a0037001e00900020119000d1
:10200400b01190004e009000de00900000007100be
:10201400818071001e0190002011980031119800f8
:102024001c0037001e009000b0109000201090009b
:1020340061004000e08048001e01900020119800db
:1020440031119800130037001e0090004e019000db
:10205400de01900022109800331098000d00370024
:102064002e009000e20f5000060032001e00900087
:102074004e019000de019000221098003310980069
:10208400040037000000eb00000f78000100370067
:10209400000000002e009000e10f50001e003a00e6
:1020a4001e0090000080e8008c0807001e009000cd
:1020b400b008900060e58000808f50000300360077
:1020c4001e0090003008900060e588001e0090001b
:1020d4000081e8001e009000300890006a00b900fa
:1020e4008000780040c52100008040008200780014
:1020f4002a0807001e009000b0089000f0e7800056
:1021040030089000808f500003003600b821020090
:102114000000000000000000d50707001e00780042
:102124000080fa00000006001400fa00400798003e
:10213400520798006307980071079800040f9800ed
:10214400150f980010002000000f78004e0090003a
:10215400100798000000eb00200798000e0890007c
:10216400e00f5000050032001e009000b0109000f7
:10217400201090000e0990000089be001e009000ff
:10218400c0109000310798001e009000210020002c
:10219400411098007e0090000100200042002000c1
:1021a40003002000820f5000838f58002d003e0052
:1021b400006001002a003700030037000d003700db
:1021c400150037001a0037001e00900020119000ff
:1021d400b01190005e009000ee00900000007100cd
:1021e400818071001e019000201198003111980027
:1021f4001c0037001e009000b010900020109000ca
:1022040061004000e08048001e0190002011980009
:1022140031119800130037001e0090005e019000f9
:10222400ee01900022109800331098000d00370042
:102234003e009000e20f5000060032001e009000a5
:102244005e019000ee019000221098003310980077
:10225400040037000000eb00000f78000100370095
:10226400000000003e009000e10f50002a003a00f8
:10227400d0e58000e00f500016003a001e009000e8
:102284000080e800150807001e009000b0089000c8
:1022940060e58000808f5000030036001e0090002f
:1022a4003008900060e588001e0090000081e8007e
:1022b4001e009000300890006a00b9008000780089
:1022c40040c521000080400082007800b307070069
:1022d400050037001e0090006c004000800078006c
:1022e40040c92100ad0707001e009000b00890000f
:1022f400f0e7800030089000808f50000600360020
:102304001e089000e00f5000030032001e089000e9
:1023140011002000010878001e0078000080fa00f7
:10232400000006000a00fa003007980041079800f0
:102334003e009000000f78000000eb0010079800aa
:102344001e007800c0109000210798001e0078003d
:1023540021002000411098001e007800b010900069
:102364002010900061004000e08048001e017800c9
:1023740020119800311198002e009000e10f5000b8
:1023840028003a00d0e58000e00f500014003a0025
:102394001e80e800d10707001e007800b0089000f6
:1023a40060e58000808f5000030036001e00780036
:1023b4003008900060e588001e81e8001e00780067
:1023c400300890006a00b9008000780040c5210000
:1023d4000080400082007800700707000500370085
:1023e4009e0078006c8040008000780040c9210085
:1023f4006a0707001e007800b0089000f0e780002c
:1024040030089000808f5000060036004e00900087
:10241400e00f5000030032004e0090001100200035
:10242400010878000080fa00000006000600fa00a7
:10243400200798002e009000100798001e009000be
:10244400e00f500002003a00f0e78000010037007e
:102454001e00900010079800f20607001e0090006e
:1024640040109000e20f500006003a001e00900059
:102474008000eb004110980010002000000f78004d
:10248400020037000000eb00000f7800f806070098
:102494001e0078000080fa00000006000600fa0022
:1024a40010079800210798001e009000000f780084
:1024b400dc0607001e007800100178001e0078007a
:1024c400f00890001e007800001090000088b90009
:1024d40000007800800041001e0078001100980080
:1024e4001e0078008000eb00610898001e00780050
:1024f400900078001e007800210098001e007800eb
:10250400100178001e007800700890008000e90037
:102514001e007800001090000088b90000007800c8
:10252400800041001e007800310098001e007800f1
:102534008080eb00111098001e0078008080eb0072
:10254400211098002e009000e00f50000d003a007a
:102554001e00780040009000e00f50000f00320091
:102564009e00780068804000c1fb0700e10f500026
:102574000a003a00b8210200000000000000000038
:10258400060037009e00780068804000e3060700dc
:102594009e00780072804000e0060700b406070041
:1025a400100020000080fa00000006000c00fa0071
:1025b4003007980041079800224f98000000eb0074
:1025c400100798004e009000e00f500003003a00fe
:1025d4000000eb00000f780005003700be009000fb
:1025e4004e0090000088b90000007800000fe80059
:1025f400610220001e8040009a070700200798000f
:102604002e009000e00f5000170032004e009000a2
:10261400e00f500004003a00ae0090002e0090003d
:1026240001087800050037002e00900061022000a8
:10263400808040002e009000010878002e00900059
:10264400be009000710898002e009000ce0090000b
:1026540001109800110020002e0090008fff070049
:102664002e009000100798001e0090000080fa00d1
:10267400000006000400fa002047980060022000d1
:1026840078070700000f78001e007800e00f500064
:10269400260032001e0078008000eb001100980034
:1026a4001e0078008000eb00010878001e0078000e
:1026b4008000eb00210098001e0078008000eb00f1
:1026c400310098001e0078008000eb00610898003b
:1026d4001e00780011002000710898001e00780088
:1026e4008000eb00011098001e0078008080eb0051
:1026f400111098001e0078008080eb0021109800d3
:102704009e00780068804000840607009e007800e0
:1027140072804000810607008001eb000001eb009d
:102724008000eb001e007800030007001e00780004
:102734000080fa00000006001200fa00500798001a
:102744006107980072079800030f98000000eb00df
:10275400000f78005e009000100798000100370019
:10276400000000002f0607001e009000e008900003
:102774001e00900070089000808f50000300390004
:102784000e089000e20f50001b003a000e09900062
:10279400ee0090001e009000c7010700200798007b
:1027a4001e00900010089000e00f50000900320055
:1027b4001e009000720040002dfb0700e10f500046
:1027c4000a003a00b82102000000000000000000e6
:1027d400060037002e009000e00f50000300320086
:1027e400b8210200000000000000000020060700dd
:1027f400100020003d0037007e009000e00f5000e4
:1028040003003a001a0607000000eb003700370007
:102814001e007800e00f500004003a0066004700f4
:102824007cfb070010002000000f78001006070052
:10283400bbf90700fb0507001e0090001010900074
:10284400e10f400003003a001e0090008000eb00fe
:10285400111098001e00900020109000e10f40001d
:1028640003003a001e0090008000eb002110980045
:10287400ff050700ee004700660047006ffb0700f6
:10288400e00f500015003a001e0090006702070098
:10289400e00f50000d003200fe0090001e0090007a
:1028a40068004000b6fa07001e0090000702070007
:1028b400a1f90700e00f5000a9ff3a00b821020077
:1028c4000000000000000000a6ff37001e0090007a
:1028d400fe01070098f90700a2ff37001e009000d0
:1028e400fa01070094f907000000eb000080fa00e9
:1028f400000006000e00fa00300798004107980017
:1029040052079800630798003e0090001007980053
:102914000000eb00200798001e009000e0089000e3
:102924001e00900070089000808f50000300390052
:102934006e009000e20f500020003a006e019000fb
:10294400ce0090001e0090005b0107001e00900066
:1029540020109000e10f400010003a001e0090008b
:1029640010089000e00f5000110032001e0090008b
:1029740072004000befa0700e00f50000c00320065
:102984005e009000e00f5000090032005e009000ed
:102994001100200001087800050037001e00900097
:1029a400201090008000e8001e0090002110980084
:1029b40010002000000f7800020037000000eb0038
:1029c400000f78001e0078000080fa000000060066
:1029d4000a00fa0030079800410798003e00900072
:1029e400100798000000eb00200798001e009000dc
:1029f400e00890001e00900070089000808f500046
:102a0400210031001e009000600890008000e80062
:102a14001e009000610898001e0090002010900095
:102a2400e10f400010003a001e00900010089000d2
:102a3400e00f5000110032001e00900072004000b0
:102a44008bfa0700e00f50000c0032004e0090009b
:102a5400e00f5000090032004e00900011002000e9
:102a640001087800050037001e0090002010900037
:102a74008000e8001e009000211098001000200043
:102a8400000f7800020037000000eb00000f780010
:102a94001e0078000080fa00000006001200fa0010
:102aa400500798006107980072079800030f980078
:102ab4000000eb00000f78005e0090001007980003
:102ac4000100370000000000560507001e009000ba
:102ad40060089000e00f5000350032001e009000a6
:102ae400b000900021079800ee0090001e009000b6
:102af400540107000e089000e00f50001a003a003d
:102b04001e009000600890008000e9001e00900004
:102b1400610898001e00900010007800e00f50003b
:102b240004003a004ffc0700800078001e0090006b
:102b3400110098001e00900040009000e00f50002b
:102b4400180032001e0090006800400048fa070098
:102b5400e10f500013003a00b82102000000000009
:102b6400000000000f0037001e009000ae0090002f
:102b7400310098001e00900010089000e00f5000f3
:102b8400080032001e0090007200400038fa07006e
:102b9400e00f500003003200b821020000000000e2
:102ba4000000000032050700100020004600370036
:102bb4007e009000e00f500003003a002c0507004f
:102bc4000000eb00400037001e007800e00f5000ca
:102bd40004003a00660047008efa07001000200047
:102be400000f780022050700cdf807000d05070047
:102bf4001e00900010109000e10f400003003a0006
:102c04001e0090008000eb00111098001e00900040
:102c140020109000e10f400003003a001e009000d5
:102c24008000eb002110980011050700ee0047001a
:102c34006600470081fa0700e00f50001e003a00ca
:102c44001e0090005b010700e00f500016003200e8
:102c54001e00900010007800e00f500005003a00bc
:102c6400f00407001e0090001000900078fb07009d
:102c7400ff040700fe0090001e0090007200400058
:102c8400bff907001e00900010010700aaf8070012
:102c9400e00f50008bff3a00b82102000000000052
:102ca4000000000088ff37001e00900007010700a5
:102cb400a1f8070084ff37001e00900003010700fd
:102cc4009df807000000eb000080fa0000000600f9
:102cd4000c00fa003007980041079800520798004a
:102ce4003e009000100798000000eb0020079800b9
:102cf4001e00900060089000e00f50002400320095
:102d0400ce0090001e009000ce0007001e00900030
:102d1400600890008000e9001e009000610898009f
:102d24001e00900010109000e10f400010003a00c7
:102d34001e00900040009000e00f5000110032008f
:102d44001e00900068004000c9f90700e00f500021
:102d54000c0032005e009000e00f500009003200c9
:102d64005e00900011002000010878000500370083
:102d74001e009000101090008000e8001e009000db
:102d84001110980010002000000f78000200370096
:102d94000000eb00000f78001e0078000080fa00ad
:102da400000006000c00fa00400798005107980044
:102db4004e009000100798000000eb0020079800d8
:102dc4001e00900060089000e00f50000c003200dc
:102dd4001e009000b000900031079800de009000c3
:102de4001e009000970007001e009000be00900097
:102df4003100980010002000000f78000200370016
:102e04000000eb00000f78001e0078000080fa003c
:102e1400000006000400fa0010079800810407006f
:102e24001e009000e0089000010f78009004070055
:102e34001e0078000080fa00000006000600fa0078
:102e4400200798002e009000000f780075040700fa
:102e54001e007800f00890001e00780060089000c2
:102e64000080500010079800810407001e009000a5
:102e74000080fa00000006000400fa001007980021
:102e84001e009000e0089000010f78001e007800fa
:102e94000080fa00000006000400fa001007980001
:102ea4001e009000000f78001e0078009a050700ad
:102eb4000080fa00000006000800fa0010079800dd
:102ec40021079800320798000000eb00000f7800fb
:102ed4001e00900000109000e00f50000c003a001b
:102ee4001e00900010007800e00f50004d003a00e2
:102ef4001e0090001000900013fb0700000f7800e4
:102f04001e0090008000eb0011009800450037007f
:102f14003e009000e00f500019003a001e0090009f
:102f2400801090001e0090002000900001017800a5
:102f3400ae0090009af507001e009000a0009000db
:102f44001e00900000109000808040001e00900041
:102f5400210098001e009000a00090001e00900028
:102f640010009000808f50002e0039001e00900049
:102f7400900078001e00900021009800290037007e
:102f84001e009000801090001e0090003000900001
:102f940001017800ae00900081f507001e0090004a
:102fa400b00090001e009000001090000000ea00a5
:102fb400808040001e009000310098001e009000a8
:102fc400b00090001e00900010007800808f500028
:102fd400080031001e009000900090001e00900038
:102fe400001090000000ea00808040001e00900065
:102ff400310098003e009000e20f500009003a00b2
:103004001e00900060089000e00f500005003200a0
:103014001e009000600890008000e9001e009000ef
:10302400610898001e009000600890008000e8008d
:103034001e009000610898001e0078000080fa00cd
:10304400000006000400fa00000f78001107980041
:103054001e00780000109000e00f500019003200ac
:103064001e007800b00090001e0078000010900050
:10307400808040001e007800310098001e00780017
:10308400b00090001e00780010009000808f500067
:10309400040039001e007800900078001e007800bb
:1030a400310098001e007800801090001e00780007
:1030b4003000900001017800800078001e0090002c
:1030c40037f507000080fa00000006000200fa004d
:1030d400000f7800d30307000f0037001e007800ac
:1030e40010089000e00f5000100032009e0078009d
:1030f40072804000def80700e00f5000010032004b
:1031040084f907001e007800201090008000e90078
:103114001e007800211098001e00780020109000f6
:10312400e00f5000edff3c000100370000000000fc
:103134001e0078008080eb0021109800cc0307006b
:10314400b80307000f0037001e007800400090000d
:10315400e00f5000100032009e00780068804000ac
:10316400c3f80700e00f50000100320069f90700be
:103174001e007800101090008000e9001e00780006
:10318400111098001e00780010109000e00f5000fd
:10319400edff3c0001003700000000001e00780035
:1031a4008080eb0011109800b10307000080fa0042
:1031b400000006000400fa001007980099030700b5
:1031c4001e00900060089000e00f500003003a00d9
:1031d40010002000000f7800020037000000eb0010
:1031e400000f7800a20307001e0078000080fa0098
:1031f400000006000400fa00100798001e0090006a
:1032040060089000e00f500003003a001000200016
:10321400000f7800020037000000eb00000f780078
:103224001e0078000080fa00000006000400fa0086
:10323400100798007b0307001e009000e008900030
:103244001e00900070089000808f500003003a0028
:1032540010002000000f7800020037000000eb008f
:10326400000f7800820307001e0078000080fa0037
:10327400000006000400fa00100798001e009000e9
:10328400e00890001e00900070089000808f5000ad
:1032940003003a0010002000000f780002003700fd
:1032a4000000eb00000f78001e0078000080fa0098
:1032b400000006001600fa00000f9800110f980095
:1032c400220f98000e0890001007980090028000ca
:1032d40020079800ff3ffc0011028000f0f12f004e
:1032e40080806000000220000080700010028800ce
:1032f4002e0090009002880000008800000000006a
:103304001e009000c9ff0700e00f500020003200ab
:103314002e089000e00f5000110032001e009000b3
:1033240068004000800078002e0890008f0107009c
:103334009002800030079800ff3ffc0011028000db
:10334400f0f12f0000806000100288003e00900021
:103354009002880000008800c0ff2f00480037005a
:103364009002800040079800ff3ffc00110280009b
:10337400f0f12f0000806000100288004e009000e1
:1033840090028800000088000000eb003c00370039
:103394009002800050079800ff3ffc00110280005b
:1033a400f0f12f0000806000100288005e009000a1
:1033b4009002880000008800900280006007980056
:1033c400ff3ffc0011028000f0f12f0080806000bc
:1033d4000002200000807000100288006e0090003f
:1033e4009002880000008800000000001e00900089
:1033f400e00890001e00900070089000808f50003c
:10340400120031000001eb009e0890001e009000a5
:10341400a9fe070010002000000f78001e00900095
:1034240010089000e00f50000a0032001e009000c7
:10343400720040005a020700e00f500005003200fd
:10344400b0ff2f00000f7800020037000000eb00ef
:10345400000f78009002800070079800ff3ffc0086
:1034640011028000f0f12f0000806000100288003b
:103474007e00900090028800000088001e00780002
:103484000080fa00000006001600fa00000f980001
:10349400110f9800220f98000e0890001007980052
:1034a4009002800020079800ff3ffc00110280007a
:1034b400f0f12f0080806000000220000080700086
:1034c400100288002e0090009002880000008800fe
:1034d400000000001e00900060089000e00f500003
:1034e40020003a002e089000e00f50001100320036
:1034f4001e00900072004000800078002e089000aa
:103504001a0107009002800030079800ff3ffc007a
:1035140011028000f0f12f0000806000100288008a
:103524003e0090009002880000008800c0ff2f0039
:10353400600037009002800040079800ff3ffc00c5
:1035440011028000f0f12f0000806000100288005a
:103554004e00900090028800000088000000eb00fc
:10356400540037009002800050079800ff3ffc0091
:1035740011028000f0f12f0000806000100288002a
:103584005e00900090028800000088009002800095
:1035940060079800ff3ffc0011028000f0f12f004b
:1035a400808060000002200000807000100288000b
:1035b4006e00900090028800000088000000000067
:1035c4001e00900060089000e00f50002c003200b4
:1035d4001e009000b00090001e00900000109000ab
:1035e400808040001e009000310098001e00900072
:1035f400b00090001e00900010009000808f5000da
:10360400040039001e009000900078001e00900015
:10361400310098001e009000600890008000e900ce
:103624001e009000610898001e0090008010900019
:103634001e009000300090000101780080007800a6
:103644001e089000d6f3070010002000000f780039
:103654001e00900040009000e00f50000a0032006d
:103664001e00900068004000cd010700e00f5000ec
:1036740005003200b0ff2f00000f78000200370071
:103684000000eb00000f78009002800070079800a3
:10369400ff3ffc0011028000f0f12f000080600069
:1036a400100288007e0090009002880000008800cc
:1036b4001e0078000080fa00000006000800fa00ee
:1036c4001007980021079800320798001e00900008
:1036d400000f78001e007800e00890001e007800bb
:1036e40070089000808f5000120031000001eb0040
:1036f400ae0090001e007800effd07003e00900031
:10370400e00f50000b003a001e00780010089000f3
:10371400e00f5000070032009e00780072804000e5
:103724009f010700e00f500002003200100020004b
:10373400010037003e0090000080fa0000000600ff
:103744000a00fa0020079800310798004207980001
:103754002e009000100798001e0090006008900052
:10376400e00f5000310032001e009000b0009000c5
:103774001e00900000109000808040001e00900009
:10378400310098001e009000b00090001e009000d0
:1037940010009000808f5000040039001e0090003b
:1037a400900078001e009000310098001e009000e8
:1037b400600890008000e9001e00900061089800f5
:1037c4001e009000801090001e00900030009000b9
:1037d40001017800800078003e00900070f307003b
:1037e4004e00900010007800e00f50000c003a00ea
:1037f4001e00900040009000e00f500008003200ce
:103804001e0090006800400065010700e00f5000b2
:10381400030032004e0090001100200001087800df
:1038240010002000000f7800020037000000eb00b9
:10383400000f78001e0078000080fa0000000600e7
:103844000a00fa0020079800310798004207980000
:10385400c001200003030700100798001e00900019
:10386400e00f50003c003200d0e78000e00f500031
:1038740003003a001e009000d0e788002e010700e4
:103884003e009000e10f50000200360010002000be
:10389400300798001e0090008000eb00510898004b
:1038a4001e009000be009000310898001e00900099
:1038b400ce009000410898001e009000ae009000d9
:1038c400010878001e0090000080e8002c02070028
:1038d4001e0090006c004000290207001e009000aa
:1038e4009e009000410098001e0090009e009000f1
:1038f400110898003e009000e20010001e009000a5
:10390400610098001e009000b008900090e78000cd
:10391400808f5000030036001e0090003008900095
:1039240090e788001e0090000081e8001e009000cf
:10393400300890006a00b90080007800c0cb2100f4
:10394400008040008200780014020700100020006c
:10395400000f7800020037000080eb00000f7800b1
:103964001e0078000080fa00000006000600fa003d
:103974001007980021079800a1e780001e0090001e
:10398400008f4000d0e780000080e8005302070069
:10399400d0e780009e00780011009800a0e7800026
:1039a4009e007800808f500005003100d0e7800031
:1039b4008080e80030e7800016020700040037002a
:1039c400d0e780008080e80020e780001102070033
:1039d4002e009000e00f500005003200d0e7800078
:1039e4006c004000800078002e009000090207005f
:1039f4000080fa00000006000600fa0032003700da
:103a040090028000000f7800ff3ffc00110280004c
:103a1400f0f12f0080806000000220000080700020
:103a2400100288001e0078009002880000008800c0
:103a34000000000070e7800030009000100798003c
:103a44001e0090006c0040002402070090028000d9
:103a540020079800ff3ffc0011028000f0f12f00c6
:103a640000806000100288002e0090009002880000
:103a7400000088001e0090000080e8001702070084
:103a84001e009000b008900090e78000808f5000e6
:103a9400030036001e0090003008900090e7880074
:103aa4001e0090000081e8001e0090003008900085
:103ab4006a00b90080007800c0cb2100008040007b
:103ac40082007800b501070040e78000e00f500055
:103ad400cbff3a000080fa00000006000800fa005c
:103ae40064f50700b1e7800001005000c0e78800da
:103af40054003700a0e780000000e800a0e7880039
:103b0400c0e780000000e900c0e78800a0e780006b
:103b1400e00f500044003a0020e78000000f7800d6
:103b240030e7800020e788001e00780030e7880036
:103b34003e00370020e78000300090003000900005
:103b4400100798001e00900090009000a0e78000ed
:103b5400808f50003a003e009002800020079800b9
:103b6400ff3ffc0011028000f0f12f008080600014
:103b74000002200000807000100288002e009000d7
:103b84009002880000008800000000001e009000e1
:103b94000080e800d10107001e009000200890007a
:103ba400e00f5000030032001e0090006c00400043
:103bb400ca0107009002800030079800ff3ffc0014
:103bc40011028000f0f12f000080600010028800d4
:103bd4003e00900090028800000088001e009000c3
:103be400b008900090e78000808f500003003600fa
:103bf4001e0090003008900090e788001e0090009e
:103c04000081e8001e009000300890006a00b900ae
:103c140080007800c0cb2100008040008200780042
:103c24005e010700010037000000000020e780006b
:103c340010007800e00f5000beff3a00010037008a
:103c440000000000c0e78000e00f5000a9ff3a0028
:103c5400a0e78000b0e788000080fa0000000600ba
:103c64000200fa0064ff07009cff0700060037000b
:103c740090e78000e00f50002c00320090e78000b5
:103c84000000e90090e7880090e780006a00b9002e
:103c940080007800c0cb2100008040001000780034
:103ca400e00f5000f2ff320090e780006a00b90094
:103cb40080007800c0cb2100008f40001e007800f7
:103cc40010009000900090001e00780011009800f1
:103cd4001e007800900090001e01780064004100ee
:103ce400808f500005003a001e00780010009000fc
:103cf400900090001e007800110098001e007800cb
:103d04001000900030009000d0e78800d0e78000d9
:103d140010017800d0e78000c0089000d0e7800050
:103d24000200010000000000010037000000000054
:103d34000080fa00000006000200fa000000eb0018
:103d4400000f7800070037001e0078006a00b900f1
:103d540080007800c0cb210000804000ef00070005
:103d64001e0fe8001e007800e10f5000f6ff360039
:103d740000cd2100e9000700a0cd2100e7000700e5
:103d840080ce2100e500070000cd210020e7880057
:103d9400a0cd210030e788000080fa000000060072
:103da4000600fa00200798002e00900030009000d2
:103db40030009000100798001e0090006c00400036
:103dc400460107001e0090006c004000800078004f
:103dd40080ce2100f10007001e009000b008900082
:103de400d0e7800030089000808f50000300390035
:103df40010002000000f7800020037000000eb00e4
:103e0400000f78001e0078000080fa000000060011
:103e14004000fa00501f9800611f9800721f98001c
:103e24000e0078004000b000212f28001a0009007d
:103e3400311878006e189000100798005e189000f2
:103e44009e009000010878005e1890000080e80051
:103e5400501f98005e1890008000eb000108780065
:103e64005e1890000080e800501f98005e189000d3
:103e74008000eb00010878005e1890000080e800e4
:103e8400501f9800fe1890005e18900001087800fa
:103e94005e1890000080e800501f98000000eb00be
:103ea400000f78000a0037001e0078000000400070
:103eb40000004700a00090005e1890000108780000
:103ec4005e1890000080e800501f98001e0fe80064
:103ed4001e007800fa0f5000f3ff36002102800024
:103ee4005e189000010878005e1890000080e800d9
:103ef400501f980034c0bf008080fb005e18900003
:103f0400010878005e1890000080e800501f9800b7
:103f14005e1890008000eb00010878005e189000a5
:103f24000080e800501f98005e1890000080fa009e
:103f3400000006000000fa0023000700f0e78000fc
:103f4400900778004f007800e0e788003400f9001b
:103f54004400f9004000f9003e00f9003c00f9007b
:103f64003a00f9003800f9002c00f9002a00f900a1
:103f74002800f9002600f9002400f9002200f900c5
:103f84003200f9003600f9004f0778004f06be00f2
:103f94004f05be004f04be004f03be004f02be00db
:103fa4004f01be004f00be004200f90000000600b1
:103fb400100020000080fa00000006000000fa0053
:103fc4000080fa00000006000400fa00309c200083
:103fd40001002000008fbe000000eb0020088800d4
:103fe4000000eb00000888001e007800100888001c
:103ff40021058000f0ff280080806000000021007f
:1040040000807000200588008460a9009460a800e6
:104014000481a80004a1a90005e1a8000080fa0019
:10402400000006000200fa0090028000000f7800f1
:10403400ff3ffc0011028000f0f12f00808060003f
:104044000002200000807000100288001e0078002a
:10405400900288000000880000000000e0e7800073
:104064000000e800e0e788000080fa000000060095
:104074000200fa00e0e780000000e900e0e78800c1
:10408400e0e78000e00f50000a003a009002800050
:10409400000f7800ff3ffc0011028000f0f12f00b8
:1040a40000806000100288001e00780090028800e2
:1040b400000088000080fa00000006003600f800c6
:1040c400809fbe00829fbe00849fbe00869fbe006c
:1040d4003400f80000002000a00188000000fa006d
:1040e4008460a900f7f30700e00f500003003200da
:1040f400b821020000000000000000000080fa0067
:104104003400f9004f03be004f02be004f01be0051
:104114004f00be003600f900004006000200fa001d
:10412400000f78009e0078006480400080007800d2
:104134001e007800110098001e0078008080eb00bb
:10414400210098009e007800648040008000780080
:104154001e007800310098009e00780064804000c2
:10416400800078001e007800410098001e0078004e
:104174008000eb00010878000080fa0000000600cf
:104184000200fa00000f78001e0078008000eb00a7
:10419400410098000080fa00000006000600fa00c2
:1041a40010079800210798001e00900090009000ce
:1041b400010f78002e0090009e00780011009800f6
:1041c4001e007800a00090002e00900021009800ae
:1041d4001e00780020009000ae00900011009800ae
:1041e4001e007800ae009000210098002e00900080
:1041f4009e009000410098001e009000100078007e
:104204008000e8001e009000010878000080fa0099
:10421400000006000800fa00200798003107980003
:104224003e00900090007800110798001e00900056
:10423400e10f400004003a002e009000c0009000fe
:10424400010f78000d0037002e009000640040003c
:10425400000f7800030037001e00780090009000e3
:10426400010f78001e007800100090009000780084
:104274001e009000808f5000f7ff36001e0078006b
:10428400900090003e009000110098003e009000c5
:1042940010009000be009000210098003e009000a5
:1042a4009e007800210098001e007800be00900057
:1042b400110098003e009000ae009000410098006c
:1042c4002e009000100078008000e8002e0090007e
:1042d400010878000080fa00000006000400fa00db
:1042e400100798001e00900040009000000f780016
:1042f4001e009000100090009e009000a10090000d
:10430400210098001e009000200090009e00900064
:1043140091009000110098001e0078009000900019
:104324001e009000808f500004003a001e00900090
:10433400a00090001e007800110098001e0090005c
:104344008000eb00410098001e0078001000780007
:104354008000e9001e007800010878001e00780043
:10436400100078000080fa00000006004200f80007
:10437400801f78000002200010028800811f78004e
:10438400829fbe00849fbe00869fbe00889fbe00a1
:104394008a9fbe008c9fbe008e1f78003600f800f6
:1043a4003200f8002200f8002400f8002600f8008b
:1043b4002800f8002a00f8002c00f8003800f80063
:1043c4003a00f8003c00f8003e00f8004000f80015
:1043d4004400f8003400f800e0e78000801f780013
:1043e400f0e780000f087800420902000000000096
:1043f400f0e78000900778004f007800e0e788003d
:104404003400f9004400f9004000f9003e00f900ce
:104414003c00f9003a00f9003800f9002c00f900da
:104424002a00f9002800f9002600f9002400f90008
:104434002200f9003200f9003600f9004f07780035
:104444004f06be004f05be004f04be004f03be0022
:104454004f02be004f01be004f00be004200f900f3
:10446400000006000400fa00100798000000eb00aa
:10447400000f78001e00900061006000004078008a
:10448400e04f5000050032009e009000e0ff2f0036
:10449400008060000080e80010079800a0f2070088
:1044a40090e28000e00f500004003a0021852000d3
:1044b400e0ff2f000080600090e2880081e280002d
:1044c4001e00900080804000d03f2100808f50006b
:1044d4000d003e0081e280001e00900080804000bc
:1044e40080e28000808f50000700360091e2800057
:1044f40080e28000008f400081e280001e00900076
:104504000080400080e288008bf207001e007800e3
:104514000080fa00000006000200fa00000f780094
:104524000080fa00000006000000fa000000eb0022
:1045340080e288000080fa00000006000000fa0013
:1045440080e28000e13f2100008050000080fa00fa
:10455400000006000000fa0060022000303a8800e3
:10456400213a8000f0f32f008080600000042000d6
:1045740000807000203a8800213a800000fe2f005d
:1045840000806000203a880032002000800720006c
:10459400a109200033742000804978008149780003
:1045a4008249780012002000600420007105200078
:1045b400237420008049780081497800824978007a
:1045c40000000000113a8000000027008080600095
:1045d40000002300808f5000faff3a000000000022
:1045e400113a80000002200000806000e00f5000bb
:1045f400fbff32000080fa00000006000000fa0011
:084604000080fa00000006002e
:020000040000fa
:10460c00bc1c00003e00000000000000fa1c000072
:10461c000200000002000000000000005008000032
:10462c000414000000000000fc1c0000020000004c
:10463c0002000000ef000000fe1c00000200000061
:10464c000200000000000000541c00006800000084
:08465c00000000000000000056
:020000040000fa
:104664000000fa00bbff0700e4ff07001f0007007b
:104674000f000700f3f107000000eb000080fa00d0
:10468400000006000000fa000080fa0000000600a6
:104694000400fa00000f780011079800ffff3700ac
:1046a4000200fa00000f78000080fa000000060003
:1046b4000000fa008003eb000003eb008002eb0033
:1046c400140020008001eb00020f2000a134280018
:1046d40020352200f2ef07000080fa0000000600f7
:1046e4000200fa00000f7800ffff37000000fa0014
:1046f4008003eb000003eb008002eb0014002000b9
:104704008001eb00020f2000213428002037220012
:0c471400e3ef07000080fa000000060040
:020000040000fa
:084720000040da000000fe0079
:020000040000fa
:0200000401f009
:04000000ffff0000fe
:020000040000fa
:0200000401f009
:04000400ff000000f9
:020000040000fa
:0200000401f009
:04000800ffff0000f6
:020000040000fa
:0200000401f009
:04000c007aff000077
:020000040000fa
:0200000401f009
:040010007eff00006f
:020000040000fa
:0200000401f009
:040014007fffff006b
:020000040000fa
:0200000401f009
:04001c00dfff000002
:00000001FF
